{
  "contractName": "Word",
  "abi": [
    {
      "anonymous": false,
      "inputs": [
        {
          "indexed": true,
          "internalType": "address",
          "name": "previousOwner",
          "type": "address"
        },
        {
          "indexed": true,
          "internalType": "address",
          "name": "newOwner",
          "type": "address"
        }
      ],
      "name": "OwnershipTransferred",
      "type": "event"
    },
    {
      "constant": true,
      "inputs": [
        {
          "internalType": "uint256",
          "name": "",
          "type": "uint256"
        }
      ],
      "name": "authors",
      "outputs": [
        {
          "internalType": "bytes32",
          "name": "",
          "type": "bytes32"
        }
      ],
      "payable": false,
      "stateMutability": "view",
      "type": "function"
    },
    {
      "constant": true,
      "inputs": [],
      "name": "currentPrice",
      "outputs": [
        {
          "internalType": "uint256",
          "name": "",
          "type": "uint256"
        }
      ],
      "payable": false,
      "stateMutability": "view",
      "type": "function"
    },
    {
      "constant": true,
      "inputs": [],
      "name": "isOwner",
      "outputs": [
        {
          "internalType": "bool",
          "name": "",
          "type": "bool"
        }
      ],
      "payable": false,
      "stateMutability": "view",
      "type": "function"
    },
    {
      "constant": true,
      "inputs": [],
      "name": "owner",
      "outputs": [
        {
          "internalType": "address",
          "name": "",
          "type": "address"
        }
      ],
      "payable": false,
      "stateMutability": "view",
      "type": "function"
    },
    {
      "constant": true,
      "inputs": [
        {
          "internalType": "uint256",
          "name": "",
          "type": "uint256"
        }
      ],
      "name": "prices",
      "outputs": [
        {
          "internalType": "uint256",
          "name": "",
          "type": "uint256"
        }
      ],
      "payable": false,
      "stateMutability": "view",
      "type": "function"
    },
    {
      "constant": false,
      "inputs": [],
      "name": "renounceOwnership",
      "outputs": [],
      "payable": false,
      "stateMutability": "nonpayable",
      "type": "function"
    },
    {
      "constant": false,
      "inputs": [
        {
          "internalType": "address",
          "name": "newOwner",
          "type": "address"
        }
      ],
      "name": "transferOwnership",
      "outputs": [],
      "payable": false,
      "stateMutability": "nonpayable",
      "type": "function"
    },
    {
      "constant": true,
      "inputs": [
        {
          "internalType": "uint256",
          "name": "",
          "type": "uint256"
        }
      ],
      "name": "words",
      "outputs": [
        {
          "internalType": "bytes32",
          "name": "",
          "type": "bytes32"
        }
      ],
      "payable": false,
      "stateMutability": "view",
      "type": "function"
    },
    {
      "constant": false,
      "inputs": [],
      "name": "withdraw",
      "outputs": [],
      "payable": false,
      "stateMutability": "nonpayable",
      "type": "function"
    },
    {
      "constant": true,
      "inputs": [],
      "name": "getEnergy",
      "outputs": [
        {
          "internalType": "uint256",
          "name": "",
          "type": "uint256"
        }
      ],
      "payable": false,
      "stateMutability": "view",
      "type": "function"
    },
    {
      "constant": true,
      "inputs": [],
      "name": "getBalance",
      "outputs": [
        {
          "internalType": "uint256",
          "name": "",
          "type": "uint256"
        }
      ],
      "payable": false,
      "stateMutability": "view",
      "type": "function"
    },
    {
      "constant": false,
      "inputs": [
        {
          "internalType": "bytes32",
          "name": "_wordHash",
          "type": "bytes32"
        },
        {
          "internalType": "bytes32",
          "name": "_authorHash",
          "type": "bytes32"
        }
      ],
      "name": "addWord",
      "outputs": [],
      "payable": true,
      "stateMutability": "payable",
      "type": "function"
    },
    {
      "constant": false,
      "inputs": [],
      "name": "getCurrentPrice",
      "outputs": [
        {
          "internalType": "uint256",
          "name": "",
          "type": "uint256"
        }
      ],
      "payable": false,
      "stateMutability": "nonpayable",
      "type": "function"
    },
    {
      "constant": false,
      "inputs": [],
      "name": "getWords",
      "outputs": [
        {
          "internalType": "bytes32[]",
          "name": "",
          "type": "bytes32[]"
        }
      ],
      "payable": false,
      "stateMutability": "nonpayable",
      "type": "function"
    },
    {
      "constant": false,
      "inputs": [],
      "name": "getAuthors",
      "outputs": [
        {
          "internalType": "bytes32[]",
          "name": "",
          "type": "bytes32[]"
        }
      ],
      "payable": false,
      "stateMutability": "nonpayable",
      "type": "function"
    },
    {
      "constant": false,
      "inputs": [],
      "name": "getPrices",
      "outputs": [
        {
          "internalType": "uint256[]",
          "name": "",
          "type": "uint256[]"
        }
      ],
      "payable": false,
      "stateMutability": "nonpayable",
      "type": "function"
    }
  ],
  "bytecode": "0x6080604052600060015565456e65726779600560006101000a81548173ffffffffffffffffffffffffffffffffffffffff021916908373ffffffffffffffffffffffffffffffffffffffff16021790555061005e61011e60201b60201c565b6000806101000a81548173ffffffffffffffffffffffffffffffffffffffff021916908373ffffffffffffffffffffffffffffffffffffffff1602179055506000809054906101000a900473ffffffffffffffffffffffffffffffffffffffff1673ffffffffffffffffffffffffffffffffffffffff16600073ffffffffffffffffffffffffffffffffffffffff167f8be0079c531659141344cd1fd0a4f28419497f9722a3daafe3b4186f6b6457e060405160405180910390a3610126565b600033905090565b610e53806101356000396000f3fe6080604052600436106100f35760003560e01c80639d1b464a1161008a578063cba802aa11610059578063cba802aa146103f2578063dca7bcbe1461042a578063eb91d37e14610496578063f2fde38b146104c1576100f3565b80639d1b464a146102e1578063bc31c1c11461030c578063bd9a548b1461035b578063c02e7057146103c7576100f3565b80637fc622f4116100c65780637fc622f4146101a0578063884fc8381461020c5780638da5cb5b1461025b5780638f32d59b146102b2576100f3565b806312065fe0146100f85780633ccfd60b146101235780633db804da1461013a578063715018a614610189575b600080fd5b34801561010457600080fd5b5061010d610512565b6040518082815260200191505060405180910390f35b34801561012f57600080fd5b50610138610531565b005b34801561014657600080fd5b506101736004803603602081101561015d57600080fd5b81019080803590602001909291905050506106f3565b6040518082815260200191505060405180910390f35b34801561019557600080fd5b5061019e610714565b005b3480156101ac57600080fd5b506101b561084d565b6040518080602001828103825283818151815260200191508051906020019060200280838360005b838110156101f85780820151818401526020810190506101dd565b505050509050019250505060405180910390f35b34801561021857600080fd5b506102456004803603602081101561022f57600080fd5b81019080803590602001909291905050506108a5565b6040518082815260200191505060405180910390f35b34801561026757600080fd5b506102706108c6565b604051808273ffffffffffffffffffffffffffffffffffffffff1673ffffffffffffffffffffffffffffffffffffffff16815260200191505060405180910390f35b3480156102be57600080fd5b506102c76108ef565b604051808215151515815260200191505060405180910390f35b3480156102ed57600080fd5b506102f661094d565b6040518082815260200191505060405180910390f35b34801561031857600080fd5b506103456004803603602081101561032f57600080fd5b8101908080359060200190929190505050610953565b6040518082815260200191505060405180910390f35b34801561036757600080fd5b50610370610974565b6040518080602001828103825283818151815260200191508051906020019060200280838360005b838110156103b3578082015181840152602081019050610398565b505050509050019250505060405180910390f35b3480156103d357600080fd5b506103dc6109cc565b6040518082815260200191505060405180910390f35b6104286004803603604081101561040857600080fd5b810190808035906020019092919080359060200190929190505050610aad565b005b34801561043657600080fd5b5061043f610ba2565b6040518080602001828103825283818151815260200191508051906020019060200280838360005b83811015610482578082015181840152602081019050610467565b505050509050019250505060405180910390f35b3480156104a257600080fd5b506104ab610bfa565b6040518082815260200191505060405180910390f35b3480156104cd57600080fd5b50610510600480360360208110156104e457600080fd5b81019080803573ffffffffffffffffffffffffffffffffffffffff169060200190929190505050610c04565b005b60003073ffffffffffffffffffffffffffffffffffffffff1631905090565b6105396108ef565b6105ab576040517f08c379a00000000000000000000000000000000000000000000000000000000081526004018080602001828103825260208152602001807f4f776e61626c653a2063616c6c6572206973206e6f7420746865206f776e657281525060200191505060405180910390fd5b60006105b56109cc565b905060006105c1610512565b9050600560009054906101000a900473ffffffffffffffffffffffffffffffffffffffff1673ffffffffffffffffffffffffffffffffffffffff1663a9059cbb33846040518363ffffffff1660e01b8152600401808373ffffffffffffffffffffffffffffffffffffffff1673ffffffffffffffffffffffffffffffffffffffff16815260200182815260200192505050602060405180830381600087803b15801561066c57600080fd5b505af1158015610680573d6000803e3d6000fd5b505050506040513d602081101561069657600080fd5b8101908080519060200190929190505050503373ffffffffffffffffffffffffffffffffffffffff166108fc829081150290604051600060405180830381858888f193505050501580156106ee573d6000803e3d6000fd5b505050565b6003818154811061070057fe5b906000526020600020016000915090505481565b61071c6108ef565b61078e576040517f08c379a00000000000000000000000000000000000000000000000000000000081526004018080602001828103825260208152602001807f4f776e61626c653a2063616c6c6572206973206e6f7420746865206f776e657281525060200191505060405180910390fd5b600073ffffffffffffffffffffffffffffffffffffffff166000809054906101000a900473ffffffffffffffffffffffffffffffffffffffff1673ffffffffffffffffffffffffffffffffffffffff167f8be0079c531659141344cd1fd0a4f28419497f9722a3daafe3b4186f6b6457e060405160405180910390a360008060006101000a81548173ffffffffffffffffffffffffffffffffffffffff021916908373ffffffffffffffffffffffffffffffffffffffff160217905550565b6060600380548060200260200160405190810160405280929190818152602001828054801561089b57602002820191906000526020600020905b815481526020019060010190808311610887575b5050505050905090565b600281815481106108b257fe5b906000526020600020016000915090505481565b60008060009054906101000a900473ffffffffffffffffffffffffffffffffffffffff16905090565b60008060009054906101000a900473ffffffffffffffffffffffffffffffffffffffff1673ffffffffffffffffffffffffffffffffffffffff16610931610c8a565b73ffffffffffffffffffffffffffffffffffffffff1614905090565b60015481565b6004818154811061096057fe5b906000526020600020016000915090505481565b606060048054806020026020016040519081016040528092919081815260200182805480156109c257602002820191906000526020600020905b8154815260200190600101908083116109ae575b5050505050905090565b6000600560009054906101000a900473ffffffffffffffffffffffffffffffffffffffff1673ffffffffffffffffffffffffffffffffffffffff166370a08231306040518263ffffffff1660e01b8152600401808273ffffffffffffffffffffffffffffffffffffffff1673ffffffffffffffffffffffffffffffffffffffff16815260200191505060206040518083038186803b158015610a6d57600080fd5b505afa158015610a81573d6000803e3d6000fd5b505050506040513d6020811015610a9757600080fd5b8101908080519060200190929190505050905090565b600154341015610b08576040517f08c379a0000000000000000000000000000000000000000000000000000000008152600401808060200182810382526022815260200180610dfd6022913960400191505060405180910390fd5b6002829080600181540180825580915050906001820390600052602060002001600090919290919091505550600434908060018154018082558091505090600182039060005260206000200160009091929091909150555060038190806001815401808255809150509060018203906000526020600020016000909192909190915055506801158e460913d0000034016001819055505050565b60606002805480602002602001604051908101604052809291908181526020018280548015610bf057602002820191906000526020600020905b815481526020019060010190808311610bdc575b5050505050905090565b6000600154905090565b610c0c6108ef565b610c7e576040517f08c379a00000000000000000000000000000000000000000000000000000000081526004018080602001828103825260208152602001807f4f776e61626c653a2063616c6c6572206973206e6f7420746865206f776e657281525060200191505060405180910390fd5b610c8781610c92565b50565b600033905090565b600073ffffffffffffffffffffffffffffffffffffffff168173ffffffffffffffffffffffffffffffffffffffff161415610d18576040517f08c379a0000000000000000000000000000000000000000000000000000000008152600401808060200182810382526026815260200180610dd76026913960400191505060405180910390fd5b8073ffffffffffffffffffffffffffffffffffffffff166000809054906101000a900473ffffffffffffffffffffffffffffffffffffffff1673ffffffffffffffffffffffffffffffffffffffff167f8be0079c531659141344cd1fd0a4f28419497f9722a3daafe3b4186f6b6457e060405160405180910390a3806000806101000a81548173ffffffffffffffffffffffffffffffffffffffff021916908373ffffffffffffffffffffffffffffffffffffffff1602179055505056fe4f776e61626c653a206e6577206f776e657220697320746865207a65726f20616464726573736d757374206d6f7265207468616e207468652070726576696f757320616d6f756e74a265627a7a723158200d8ae1d5404465b647af5f07279187858075dc9122b010dd7f0c04ef99716ee264736f6c634300050c0032",
  "source": "pragma solidity ^0.5.0;\n\nimport '@openzeppelin/contracts/ownership/Ownable.sol';\n\ninterface Energy {\n  /// @return amount of VeThor in account '_owner'.\n  function balanceOf(address _owner) external view returns (uint256 balance);\n\n  /// @notice transfer '_amount' of VeThor from msg sender to account '_to'\n  function transfer(address _to, uint256 _amount) external returns (bool success);\n}\n\ncontract Word is Ownable {\n  uint256 public currentPrice = 0;\n  bytes32[] public words;\n  bytes32[] public authors;\n  uint256[] public prices;\n\n  Energy energy = Energy(0x0000000000000000000000000000456E65726779);\n\n  function withdraw() public onlyOwner {\n    uint256 energyBalance = getEnergy();\n    uint256 vetBalance = getBalance();\n\n    energy.transfer(msg.sender, energyBalance);\n    msg.sender.transfer(vetBalance);\n  }\n\n  function getEnergy() public view returns(uint256) {\n    return energy.balanceOf(address(this));\n  }\n\n  function getBalance() public view returns(uint256) {\n    return address(this).balance;\n  }\n\n  function addWord(bytes32 _wordHash, bytes32 _authorHash) public payable {\n    require(msg.value >= currentPrice, 'must more than the previous amount');\n\n    words.push(_wordHash);\n    prices.push(msg.value);\n    authors.push(_authorHash);\n    currentPrice = msg.value + 20000000000000000000;\n  }\n\n  function getCurrentPrice() public returns(uint256) {\n    return currentPrice;\n  }\n\n  function getWords() public returns(bytes32[] memory) {\n    return words;\n  }\n\n  function getAuthors() public returns(bytes32[] memory) {\n    return authors;\n  }\n\n  function getPrices() public returns(uint256[] memory) {\n    return prices;\n  }\n}\n",
  "sourcePath": "/home/kenneth/Projects/word/contracts/Word.sol",
  "compiler": {
    "name": "solc",
    "version": "0.5.12+commit.7709ece9.Emscripten.clang"
  },
  "schemaVersion": "3.0.20",
  "updatedAt": "2020-01-06T22:35:47.286Z",
  "devdoc": {
    "methods": {
      "isOwner()": {
        "details": "Returns true if the caller is the current owner."
      },
      "owner()": {
        "details": "Returns the address of the current owner."
      },
      "renounceOwnership()": {
        "details": "Leaves the contract without owner. It will not be possible to call `onlyOwner` functions anymore. Can only be called by the current owner.     * NOTE: Renouncing ownership will leave the contract without an owner, thereby removing any functionality that is only available to the owner."
      },
      "transferOwnership(address)": {
        "details": "Transfers ownership of the contract to a new account (`newOwner`). Can only be called by the current owner."
      }
    }
  },
  "userdoc": {
    "methods": {}
  }
}